:0400000000612F323A
:0100060000F9
:02000B002113BF
:0100130032BA
:02001B00019052
:0200230001C416
:01002B0032A2
:01004300328A
:02004B0021A2F0
:01005300327A
:01005B003272
:01006300326A
:18006B0053B3FE320D0A0D0A52533233323C2D3E4E524632345F323029
:1800830032312E31312E3231000D0A0D0AC0D0C0E0C28E75D008758DE4
:18009B005D758B3CD28E787FE664116007D0E0D0D002000018E670F5E6
:1800B3000FEF54037006E51260021512D0E0D0D032C0D0C0E0C0C9753A
:1800CB00D01030981DE51604B51709E511046010F511800CC516F87540
:1800E300C902E599F27512C0C29830991CEC6017F5C9ED04F8700205C3
:1800FB00C9E27004FDFC8007F599E8FDE5C9FCC299D0C9D0E0D0D032BB
:18011300C0D0C0E0C0C975D018C28CEF601F04601C14B4FE004018C2A2
:18012B0093C294C2E8C2E9742012025D740E12025DD2E97FFF80553048
:18014300E023C286C2E8C293C294C2E9742012025D740E12025DD2E9A6
:18015B00758CFF758AD70FD28CD2A9803375C901782079177AFFD294D5
:18017300C2E974A012025DE212025DE2CA1214FE6AFAE804F870020562
:18018B00C9D9ECEA12025DD2E9D2E80FC28CC2A9D0C9D0E0D0D032C05B
:1801A300D0C0E0C0C975D018C2E9740712025DFAE412025DD2E9EA3033
:1801BB00E65975C901780079167AFFC2E9746112025DE412025DF2CA2C
:1801D3001214FE6AFAE2547FFDE804F8700205C9E412025DF2CA12147F
:1801EB00FE6AFAD9ECE412025D6AD2E9701975C9017820E2547F6D7069
:180203000EC286D280C28CC2A9C2E87FFF7EFF74408032A2E472E5504A
:18021B003AD286C280C29475C901780074FFF2C2E9742012025D740F52
:1802330012025DD2E9D293C28C758CD1758A13D28CD2A97430FAC2E9CE
:18024B00742712025DEA12025DD2E9D0C9D0E0D0D032F5E7E5E630E1A6
:18026300FBC2C0E5E72275E800120302D2EA120302901704E493A3F913
:18027B00600EC2E9E493A312025DD9F8D2E980ECC2E9742612025DE534
:180293000923442012025DD2E9790400D9FDC2E9742512025DE50E128A
:1802AB00025DD2E922E522540F44E0F8E50D540F44E0F9E50DC4540FEE
:1802C30044E0FAC2E9742A12025DE812025DE9515DEA515D74F1515DB0
:1802DB0074F0515DD2E97B0400DBFDC2E9743012025DE812025DE95194
:1802F3005DEA515D74F0515D74F1515DD2E92279FF0000D9FC227826EF
:18030B007910F60808D9FB226002E4F4782090000079027A03A3F0DA8E
:18032300FCA3D9F77A08A3DAFDD8EE2275A30075A80075B80075A600F2
:18033B0075D00075A70075C9007592007411787FF6E4D8FCF690000054
:18035300E4F0A3E583B404F8758160750BFF750AFF90FC00E0B4100080
:18036B005018F520A3E0B47E00500FF50EF50DA3E0B404005004F50957
:18038300800CE4F520747DF50EF50D7509037400F522F521E52030E0B0
:18039B00031203137826791074F0F608C4F6C408D9F875D880758780F6
:1803B30075AAF375BA0375987075A91775B900758911758D5D758B3C64
:1803CB007588407593947594E775D33875D20075D2C075DCE075AD012F
:1803E30075B4FF75B5FF75B30653B3FED2AFD2ABD2ACD2BDD2B9C280A7
:1803FB00C281C286C293C2941202691202B012106612117012046512CB
:1804130004CD120424700302000012126660ED80E5C0C9E50E650D60C7
:18042B00117826087910E6640F701F0808D9F7E48018E50BB40500503C
:180443000FE50A540F1204587006750BFF750AFFE4F4D0C92223541E37
:18045B002426F808E6540F640F22C0C9E4B5145275C902A817E4FA906C
:180473000140F08817901720E493601FF9A3E865166037E208B50102AC
:18048B0080EEC9B478E5E9C3943140DFB4090050DA80DD900140E8651F
:1804A300166017E208B42000400BF0A30AEAB47E0040EB80B8E4F08833
:1804BB0017EAD0C92275920190172075920012103F22C0C9FFE5147023
:1804D30072EF602575920190172D759200900140120FEC6014759201EE
:1804EB00901726759200900140120FEC60060209F0020C91120EDB400C
:1805030054AB83AC82759201901736759200120FEC7045120EE3FC047F
:18051B00603B1210537420F0A3ECC423F854072430F585E854E0F58408
:18053300759201E493759200600C04600912103F020E98020EB275927F
:18054B00019017C175920012103F020E98020B248B838C82759201903A
:18056300173A759200120FEC7060120EE3FC0460E4E0B420E0A3E0B439
:18057B00210040D9ECC423F854072430F585E854E0F584759201E49326
:180593007592000470BFC2AFD2FD791FE0A3B42002745F4010759201BA
:1805AB00438710F05387EFA3759200D9E7E4759201438710F05387EFBC
:1805C300759200C2FDD2AF020B0E8B838C8275920190173E759200129C
:1805DB000FEC602B0206AA120EDB40207592019017B6759200120FECFC
:1805F3007012D2FD7430C3137804F5FA04D8FBC2FD020B0E020B2412C6
:18060B000EE3FC0460D1ECC4F923F854072430FAE854E0FBE8540624CB
:1806230030F583FC2402FD7582007585FA758400C2AFD2FD75FA2075D0
:18063B00FA21759200EA6C7003EB6015E493759201F0A3759200A3E5BB
:18065300836A70F0E5826B70EB7820A3759201A3759200D8F6E493756E
:18066B009201F0A3759200A3E5836D70F0E95403F97430C31329F5FAA7
:180683007583FA7582008C85758400E0759201438710F05387EFA375D9
:18069B009200A3E583B4FCEBC2FDD2AF020B0E8B838C827592019017E9
:1806B30042759200120FEC600602073B020B24120F4CFC0460F6758244
:1806CB0000758318743014FA7BFE1214DCE493A36870E1E4936970DCDB
:1806E300ECB4110050D67045900006E493F8A3E493F97583187582064E
:1806FB00E4936870BF1210537420F0A37592019017E075920012103F46
:18071300740DF0A3740AF0A3E4F09001C0E0858215858314F599E514E5
:18072B0070FC023FA0E4F524F525ECF523020C918B838C8275920190FB
:180743001747759200120FEC7012120F8EFC04602AECF50EF50D12145A
:18075B008A0200008B838C8275920190174C759200120FEC7037120F07
:180773008EFC046006ECF50E12148A1210537592019017877592001217
:18078B00103FE50D1213BBE50E650D600D742DF0A3743EF0A3E50E12E5
:1807A30013BB020E988B838C82759201901759759200120FEC70217F80
:1807BB0000120F4C601DFB1B046018E0B42017120F4C6012FC1C046084
:1807D3000DEC6B704E020C910208A702086AEBFD120458FE121053EF70
:1807EB00600C75920190177F75920012103F75920190179D759200128F
:18080300103FC006ED041213BB7420F0A37592019017D2D0E07003909C
:18081B0017CA75920012103F020E987F01EBFD120458FE60B7ECFD12EE
:180833000458FE70AFECC454F04BF50A750B0212105375920190179DB3
:18084B0075920012103FC004EB041213BB742DF0A3743EF0A3D004EC61
:18086300041213BB020E9812105375920190179D75920012103F78262A
:18087B000879107A78E6640F600EE6540F2430FAB43A0040032407FA2E
:18089300EAF0A3E95403B401047420F0A30808D9DA020E988B838C8229
:1808AB0075920190175E759200120FEC703D120F4C6035FB1B046030BB
:1808C300E0B4202C120F4C6027FC1C046022EB540FFD1204586012EC94
:1808DB00B402005013C454F04BF50A750B03020B0E7E007F010207E70E
:1808F300020B248B838C82759201901764759200120FEC60398B838C46
:18090B0082759201901753759200120FEC605A8B838C827592019017B7
:180923006A759200120FEC60608B838C8275920190176F759200120F1C
:18093B00EC606E020C91120F4C60ADFB1B0460A8E0B420A4120F4C608A
:180953009FFC1C04609AEB540FFD120458608AECB40300508BC454F0AE
:18096B004BF50A750B04020B0E120F4C604CFB1B046047EBB4040050BE
:1809830041F50912148A02032F120F4CFB046046EBB410005040F8658B
:18099B002030E0D2E8F520540112031312148A80C5120F4C600804708A
:1809B30003020B2474F012030974F0F50CE4F51380AC1210537592017C
:1809CB0090178E75920012103FE50904801112105375920190179675C5
:1809E300920012103FE5201213BB020E98900140E0B43A5F7C00A3124D
:1809FB000EB54077CC2CCC6055B4106F78460808E8F9120EB54064CCCA
:180A13002CCCF608120EB5405ACC2CCCF608120EB54050CC2CCC704BC0
:180A2B007D10120EB54044CC2CCCF608DDF4120EB540382C7035E7FC39
:180A430009B41800502DB41700403DE7B4F10050228035020AFA758251
:180A5B0000758318743014FA7BFE1214DCE493A3687008E493697003F9
:180A7300020AE59001C01204C075920190177875920012103F020E981C
:180A8B00E709FD4C701A7418C313FB7430C313C39BFAEBC2AFD2FDF541
:180AA300FA04DAFBC2FDD2AFE9F8EC2418FCF583EDF5827A10C2AFD27A
:180ABB00FDE709438710F05387EFA3DAF4C2FDD2AFECF583EDF5827AB0
:180AD30010E4FBE493F9A3E6086960010BDAF4EB70919001C01204C065
:180AEB0075920190177475920012103F020E9875920190172F759200DB
:180B0300900140120FEC702F020C911210537420F0A3759201901775FE
:180B1B0075920012103F020E981210537420F0A37592019017797592E7
:180B33000012103F020E98E4F50C900140AB83AC827AFF0AEAB440032B
:180B4B00020C91C423F854072430F585E854E0F5848B838C8274201294
:180B63000FEE70DFFC8AC9E0B42006A380F9020BF1B42D004010B43AEC
:180B7B000050F379F078461212DB70027CFFE5C9FB03541E2426F8EBC1
:180B9300540304FA740823DAFDFA7E00E6F95A6006EAF459F67EFFECD2
:180BAB006041EAC449FDE8FCEB2323F8FB75C90079467A04EE6022E7C3
:180BC300FEE26EB40125EE54FE70207A030809E7FEE26E7016DAF6EE1B
:180BDB00047010EBF879467A04E7F20809DAFAECF8EDF6020C91AB830C
:180BF300AC827592019017A4759200120FEC79017AFF60597592019011
:180C0B0017AF7592008B838C82120FEC79017AFE60437592019017B2E5
:180C23007592008B838C82120FEC79007AFE602D7592019017A97592AC
:180C3B00008B838C82120FEC79007AFF60177592019017CA7592008B04
:180C5300838C82120FEC60217C00020B897CFF7846E9F608E52030E023
:180C6B00027AFEEAF608E4F4F608F6020B89020EB2E5C903541E24267E
:180C8300F808E6540F640F60CF18E644F0F6E5126018B4BE0050DFE551
:180C9B000CB4800050D8B408004007E512B4B00050CC7E02E513543F54
:180CB300F513FB03541E2426F8EB540304FA740823DAFDFAEE14600558
:180CCB00E6F95A601AEBC423FC54072430F583CC54E0F582FDE493601E
:180CE30006046003020D91EB04543FB513C4E5127024E513DEBC900130
:180CFB00C01204C075920190172675920012103F7420F0A3742EF0A3B2
:180D1300020E98020EB2E52360F91210537420F0A375920190174275FB
:180D2B00920012103F745FF0A3E523541F1213BB745FF0A3E52330E777
:180D43000E75920190177975920012103F8011E525B4181675920190E5
:180D5B00177575920012103FE4F523F524F525020E98745CF8F9E524EB
:180D7300F709E525F709E4F709F779F01213CE7592019017BA759200B7
:180D8B0012103F020E98E5136B543F6004EE147006EB04543FF513EA01
:180DA30049F6E50C04600CF50CB41000400574F01203099001C01204A5
:180DBB00C0E52030E0507592019017D975920012103FEB0303540F2493
:180DD30001D4F9C4540F4430F0A3E9540F4430F0A37420F0A37592018A
:180DEB009017CA75920008E6540F640FF860097592019017D2759200CB
:180E030012103F740DF0A3740AF0A31204C08C858D847C20759201E4D1
:180E1B0093A3759200600804600514F0A3DCED7420F0A3EB03541E2496
:180E33002604F8E6540FB40F13E52020E00E7592019017CA75920012C1
:180E4B00103F804975C900EB25E025E0F82403F9E3B4FF3419E3B4FFB3
:180E63002F19E319B4FE0E7592019017B2E360189017AF80134019E590
:180E7B002020E0EB7592019017A9E360039017A475920012103F80057E
:180E930079001213CE740DF0A3740AF0A3E4F09001C0E085821585838D
:180EAB0014F59974C0F512D0C9227A007B02E0C394304019B40A0040E2
:180EC3000954DF9407B41000500BA3CAC44AFADBE5EAC38002E4D322E4
:180EDB00E0B42003A380F922A983AA827B00E0B42003A380F9403CC325
:180EF30094304037B40A005032F8A3E0B420030B80174027C39430404A
:180F0B0022B40A00501DC875F00AA428F8E5F07012E814B41000500B14
:180F23002323F8A3E0B4200B0B80F889838A82E4F48015C3943040F354
:180F3B0060F1B4050050ECCB60E9CBA31454034822A983AA82E0B420F5
:180F530003A380F9402EC394304029B40A005024F8A3E0B42100401631
:180F6B00C394304017B40A005012A3C875F00AA428F8E5F07006E8B4EB
:180F83001100400689838A82E4F422A983AA82E0B42003A380F9404A38
:180F9B00C394304045B40A005040F8A3E0B421004031C394304033B475
:180FB3000A00502EC875F00AA428F8E5F07023A3E0B421004015C39437
:180FCB00304017B40A005012C875F00AA428F8E5F07007E8A3B47E0063
:180FE300400689838A82E4F422E4F4F9759200E0B421004038B4800065
:180FFB005007B461004002545FF8759201E493759200601D04601A14F0
:18101300B480005007B461004002545F68700AA3759201A3759200D920
:18102B00C3E4F4800E759201E49375920060030470EFE422759201E446
:1810430093A3759200600804600514F0A380ED229001C01204C0759223
:18105B000190172F75920012103F22C0C9E51F451E600302116DE52341
:18107300600914F8E522540F68606C900120E522540FF0A3E522540F3A
:18108B00232426F8E6540FF008E6F9540F640F600BE904F6540F640FCE
:1810A300701174F0F918E649F9540F600274F04954F0F6A3E50EB50D13
:1810BB000AE50BF0A3E50AF0A380087401F0A3E50EF0A3E522540FC4CA
:1810D30075C900F87910E2F008A3D9FAE4F4F0A3F0A3F0A3F0807290F3
:1810EB000120E522540F4480F0A3E522540F232426F808E6F9540F648E
:181103000F7009E5234480F52302107EE904F6E4F0A3E52454F0F52418
:18111B00F584F0AA82AB83A3E525B41800400302107EF0A32418F58564
:181133007910759201E493A3759200F0A3D9F38A848B857592017A12E1
:18114B001214C3759200E8F0A3E9F0A3E4F4F0A3F0751E00751F0175AD
:181163008C00758A00D28CD2A9E4D0C922C0C9E51F60090460060212FD
:18117B0012021214E51E60F6900100E0A320E7F1B4100050E9540FF865
:18119300FB232426F9E8C475C900F8E0A3FCE0A3FAE0A3B4FF06EA04DB
:1811AB007017801B540F6B7016EA601314601004B40500500A650B70DE
:1811C30000750BFF750AFF7D017B04E75D600AEC5D700608A3DBFC80AB
:1811DB0015E2FAE0F26A6005E7C44DC4F708A3DBF0E7F44DF4F7ED231E
:1811F300FD54F060D4ECC454F0FCE74CF709E754F0C7751E00540FB4B0
:18120B000F0519E744F0F7804F547FB4100050F7540FF8232426F9E539
:181223002320E734603214B41000502C687029E0A3701FE0FBA3E0FA04
:18123B007C02EB65247003EA65256014E5242410F524E5253400F525A0
:18125300DCE8E5234480F52309E754F0F7751E00D0C922C0C9E51F04D1
:18126B00706BE51E7067E522540FF522F8E804540FF8232426F9E75455
:181283000F7048E8B522EEE523600920E70614540FF88037E5210454DD
:18129B000FF803F5835480F582E58354072430F5837904E49360030484
:1812B3007016E5822420F582E5833400F583D9EBE8B521D2E523600D9E
:1812CB00E8F52188221202B0751F0074FFD0C922C0C989C9E4FB7A7F2A
:1812E300E0B42003A380F9B42D05EA4480FAA3AF82AE83E0B42E11EAD0
:1812FB00547F647F7077EAA2E7EB92E7FAA380EBB430004009B43A0044
:1813130050040BA380DD8F828E83EA547FFCEBC39C5001E4B4080050FD
:18132B004CC45470CA54804AFAE4FCFDFEFFEB603CE0A3B42E0280F9B3
:18134300540FFF1BEB6044EF75F00AA4FFA9F0EE75F00AA429FEE5F0EF
:18135B003400F9ED75F00AA429FDE5F03400F9EC75F00AA429FCE0A37E
:18137300B42E0680F9E4F4803C540F2FFFEE3400FEED3400FDEC34007E
:18138B00FCDBBCEC54F07025E5C9B4F011EFF608EEF608EDF608EC548B
:1813A3000F4AF6E4800FEFF208EEF208EDF208EC540F4AF2E4D0C9228E
:1813BB00F8745CF9C8F709E4F709F709F779F01213CE22C0C9C082C0AD
:1813D3008389C9E9B4F00FE6F58208E6F58308E6F908E6F8800DE2F59D
:1813EB008208E2F58308E2F908E2F8540FC8A2E7C4540792E7F5F0E42C
:18140300FBFCFDFEFF7A20C3E58233F582E58333F583E933F9E833F837
:18141B00EF35E0D4FFEE35E0D4FEED35E0D4FDEC35E0D4FCEB35E0D495
:18143300FBDAD4D083D082E5F0540FFA740AC39AC5F030E704742DF0E5
:18144B00A3E4F9FAE5F0B5020CE970057430F0A309742EF0A3EA03F8BF
:18146300540F2403C8A2E7E64001C4540F4430B4300AEA64096003E943
:18147B0060057430F0A309EA04B40AC7D0C922C0C9C2AFD2FD75C9FC83
:181493007800E255206520701008E2550E650E700808E255096509601F
:1814AB000375FA227800E520F208E50EF208E509F2C2FDD2AFD0C92256
:1814C30078FF79FFE0A3C8C9F5F01214FE68F8E5F012160169F9DAEC7F
:1814DB002278FF79FFE493A3C8C9F5F01214FE68F8E5F012160169F974
:1814F300E5836A70E8E5826B70E3226001832221426384A5C6E708299D
:18150B004A6B8CADCEEF31107352B594F7D639187B5ABD9CFFDE624300
:181523002001E6C7A4856A4B2809EECFAC8D53721130D7F695B45B7AEC
:18153B001938DFFE9DBCC4E586A740610223CCED8EAF48690A2BF5D4D0
:18155300B79671503312FDDCBF9E79583B1AA687E4C522036041AE8FF8
:18156B00ECCD2A0B684997B6D5F4133251709FBEDDFC1B3A597888A920
:18158300CAEB0C2D4E6F80A1C2E304254667B998FBDA3D1C7F5EB1906C
:18159B00F3D235147756EACBA8896E4F2C0DE2C3A08166472405DBFA10
:1815B30099B85F7E1D3CD3F291B0577615344C6D0E2FC8E98AAB4465F8
:1815CB000627C0E182A37D5C3F1EF9D8BB9A75543716F1D0B3922E0F60
:1815E3006C4DAA8BE8C926076445A283E0C11F3E5D7C9BBAD9F817360C
:1815FB00557493B2D1F060018322102030405060708191A1B1C1D1E16C
:18161300F112023222524272629383B3A3D3C3F3E3243404146474449A
:18162B0054A5B58595E5F5C5D53626160676665646B7A79787F7E7D74A
:18164300C74858687808182838C9D9E9F98999A9B95A4A7A6A1A0A3ADA
:18165B002ADBCBFBEB9B8BBBAB6C7C4C5C2C3C0C1CEDFDCDDDADBD8D8A
:181673009D7E6E5E4E3E2E1E0EFFEFDFCFBFAF9F8F9181B1A1D1C1F173
:18168B00E110003020504070608393A3B3C3D3E3F30212223242526270
:1816A30072B5A59585F5E5D5C53424140474645444A7B78797E7F7C7D4
:1816BB00D72636061666764656D9C9F9E99989B9A95848786818083870
:1816D30028CBDBEBFB8B9BABBB4A5A6A7A0A1A2A3AFDEDDDCDBDAD9D14
:1816EB008D7C6C5C4C3C2C1C0CEFFFCFDFAFBF8F9F6E7E4E5E2E3E0EF0
:181703001E02200C0224FF022201022303022100023118023D00023C25
:18171B000002200E006E7266782F006E7266636D64002E006E72667239
:18173300737000676574006164640064656C006C6466770072666368CD
:18174B0000616C72666368007266707772007266696400726370727415
:1817630000737476616C0073746861006D717474003A4F6B003A4572E9
:18177B00726F7200204572726F723A00205246434820002052465057DD
:1817930052200020535448412000205246494420007472756500666170
:1817AB006C7365004F4E004F464600616C6C005F6279746573005F4EFE
:1817C3006F4E616D655F006F66666C696E65006F6E6C696E6500737470
:1117DB0061747573005570646174696E672E2E2E007A
:0317FB00020000E9
:183F800000000000000000000000000000000000000000000000000029
:183F98000000000000020000C2AF75A300790400D9FDD2FD7418C31302
:183FB000F8E4F5FA04B500FA438710758318758200758500758400E0C7
:163FC800759201F0A3759200A3E583B430F15387EFC2FD020000D7
:103FE00000000000000000000000000000020000CF
:013FFF00FFC2
:00000001FF
