:040000000061383231
:0100060000F9
:02000B002113BF
:0100130032BA
:02001B00019052
:0200230001C416
:01002B0032A2
:01004300328A
:02004B0021A2F0
:01005300327A
:01005B003272
:01006300326A
:18006B0053B3FE320D0A0D0A52533233323C2D3E4E524632345F323029
:1800830032322E30352E3135000D0A0D0AC0D0C0E0C28E75D008758DDD
:18009B005D758B3CD28E787FE664116007D0E0D0D002000018E670F5E6
:1800B3000FEF54037006E51260021512D0E0D0D032C0D0C0E0C0C9753A
:1800CB00D01030981DE51604B51709E511046010F511800CC516F87540
:1800E300C902E599F27512C0C29830991CEC6017F5C9ED04F8700205C3
:1800FB00C9E27004FDFC8007F599E8FDE5C9FCC299D0C9D0E0D0D032BB
:18011300C0D0C0E0C0C975D018C28CEF601F04601C14B4FE004018C2A2
:18012B0093C294C2E8C2E9742012025D740E12025DD2E97FFF80553048
:18014300E023C286C2E8C293C294C2E9742012025D740E12025DD2E9A6
:18015B00758CFF758AD70FD28CD2A9803375C901782079177AFFD294D5
:18017300C2E974A012025DE212025DE2CA1214FD6AFAE804F870020563
:18018B00C9D9ECEA12025DD2E9D2E80FC28CC2A9D0C9D0E0D0D032C05B
:1801A300D0C0E0C0C975D018C2E9740712025DFAE412025DD2E9EA3033
:1801BB00E65975C901780079167AFFC2E9746112025DE412025DF2CA2C
:1801D3001214FD6AFAE2547FFDE804F8700205C9E412025DF2CA121480
:1801EB00FD6AFAD9ECE412025D6AD2E9701975C9017820E2547F6D706A
:180203000EC286D280C28CC2A9C2E87FFF7EFF74408032A2E472E5504A
:18021B003AD286C280C29475C901780074FFF2C2E9742012025D740F52
:1802330012025DD2E9D293C28C758CD1758A13D28CD2A97430FAC2E9CE
:18024B00742712025DEA12025DD2E9D0C9D0E0D0D032F5E7E5E630E1A6
:18026300FBC2C0E5E72275E800120302D2EA120302901703E493A3F914
:18027B00600EC2E9E493A312025DD9F8D2E980ECC2E9742612025DE534
:180293000923442012025DD2E9790400D9FDC2E9742512025DE50E128A
:1802AB00025DD2E922E522540F44E0F8E50D540F44E0F9E50DC4540FEE
:1802C30044E0FAC2E9742A12025DE812025DE9515DEA515D74F1515DB0
:1802DB0074F0515DD2E97B0400DBFDC2E9743012025DE812025DE95194
:1802F3005DEA515D74F0515D74F1515DD2E92279FF0000D9FC227826EF
:18030B00791074F0F608C44480F6547FC408D9F4226002E4F478209081
:18032300000079027A03A3F0DAFCA3D9F77A08A3DAFDD8EE2275A300F2
:18033B0075A80075B80075A60075D00075A70075C900759200741178A2
:180353007FF6E4D8FCF6900000E4F0A3E583B404F8758160750BFF7506
:18036B000AFF90FC00E0B410005018F520A3E0B47E00500FF50EF50DAB
:18038300A3E0B404005004F509800CE4F520747DF50EF50D7509037465
:18039B0000F522F521E52030E00312031C12030975D88075878075AA4E
:1803B300F375BA0375987075A91775B900758911758D5D758B3C758886
:1803CB00407593947594E775D33875D20075D2C075DCE075AD0175B403
:1803E300FF75B5FF75B30653B3FED2AFD2ABD2ACD2BDD2B9C280C2818D
:1803FB00C286C293C2941202691202B012105F12116C1204631204CB4C
:18041300120422700302000012126560ED80E5C0C9E50E650D60117812
:18042B0026087910E6640F701F0808D9F7E48018E50BB40500500FE5D1
:180443000A540F1204567006750BFF750AFFE4F4D0C92223541E2426E3
:18045B00F808E6540F640F22C0C9E4B5145275C902A817E4FA90014075
:18047300F0881790171FE493601FF9A3E865166037E208B5010280EE80
:18048B00C9B478E5E9C3943140DFB4090050DA80DD900140E865166017
:1804A30017E208B42000400BF0A30AEAB47E0040EB80B8E4F08817EAA8
:1804BB00D0C92275920190171F75920012103822C0C9FFE5147072EFCB
:1804D300602575920190172C759200900140120FE560147592019017B0
:1804EB0025759200900140120FE560060209F2020C95120ED44054ABBD
:1805030083AC82759201901735759200120FE57045120EDCFC04603BF2
:18051B0012104C7420F0A3ECC423F854072430F585E854E0F5847592A3
:1805330001E493759200600C046009121038020B38020EAB7592019066
:18054B0017C0759200121038020B38020B258B838C82759201901739E5
:18056300759200120FE57060120EDCFC0460E4E0B420E0A3E0B4210077
:18057B0040D9ECC423F854072430F585E854E0F584759201E493759240
:18059300000470BFC2AFD2FD791FE0A3B42002745F40107592014387F7
:1805AB0010F05387EFA3759200D9E7E4759201438710F05387EF75927F
:1805C30000C2FDD2AF020B108B838C8275920190173D759200120FE5AE
:1805DB00602B0206A8120ED440207592019017B5759200120FE5701286
:1805F300D2FD7430C3137804F5FA04D8FBC2FD020B10020B25120EDC5B
:18060B00FC0460D1ECC4F923F854072430FAE854E0FBE854062430F597
:1806230083FC2402FD7582007585FA758400C2AFD2FD75FA2075FA21DA
:18063B00759200EA6C7003EB6015E493759201F0A3759200A3E5836AE9
:1806530070F0E5826B70EB7820A3759201A3759200D8F6E493759201C8
:18066B00F0A3759200A3E5836D70F0E95403F97430C31329F5FA758342
:18068300FA7582008C85758400E0759201438710F05387EFA37592003F
:18069B00A3E583B4FCEBC2FDD2AF020B108B838C8275920190174175C3
:1806B3009200120FE56006020739020B25120F45FC0460F67582007595
:1806CB008318743014FA7BFE1214DBE493A36870E1E4936970DCECB4B1
:1806E300110050D67045900006E493F8A3E493F9758318758206E49377
:1806FB006870BF12104C7420F0A37592019017DF759200121038740D4B
:18071300F0A3740AF0A3E4F09001C0E0858215858314F599E51470FCFA
:18072B00023FA0E4F524F525ECF523020C958B838C8275920190174606
:18074300759200120FE57012120F87FC04602AECF50EF50D121489023B
:18075B0000008B838C8275920190174B759200120FE57037120F87FC18
:18077300046006ECF50E12148912104C75920190178675920012103862
:18078B00E50D1213BAE50E650D600D742DF0A3743EF0A3E50E1213BA68
:1807A300020B388B838C82759201901758759200120FE570217F0012A7
:1807BB000F45601DFB1B046018E0B42017120F456012FC1C04600DECAB
:1807D3006B704E020C950208AC020868EBFD120456FE12104CEF600CFF
:1807EB0075920190177E75920012103875920190179C759200121038BC
:18080300C006ED041213BA7420F0A37592019017D1D0E070039017C90D
:18081B00759200121038020B387F01EBFD120456FE60B7ECFD120456E1
:18083300FE70AFECC454F04BF50A750B0212104C75920190179C759210
:18084B0000121038C004EB041213BA742DF0A3743EF0A3D004EC04125A
:1808630013BA020B3812104C75920190179C7592001210387826087932
:18087B00107A78E6640F60157A6EE6648F600EE6540F2430FAB43A00E1
:1808930040032407FAEAF0A3E95403B401047420F0A30808D9D3020B7F
:1808AB00388B838C8275920190175D759200120FE5703D120F45603520
:1808C300FB1B046030E0B4202C120F456027FC1C046022EB540FFD12AB
:1808DB0004566012ECB402005013C454F04BF50A750B03020B107E00C4
:1808F3007F010207E5020B258B838C82759201901763759200120FE512
:18090B0060398B838C82759201901752759200120FE5605A8B838C823B
:18092300759201901769759200120FE560608B838C8275920190176E9E
:18093B00759200120FE5606E020C95120F4560ADFB1B0460A8E0B420DD
:18095300A4120F45609FFC1C04609AEB540FFD120456608AECB4030029
:18096B00508BC454F04BF50A750B04020B10120F456049FB1B046044D9
:18098300EBB40400503EF509121489020338120F45FB046043EBB4108A
:18099B0000503DF8652030E0D2E8F520540112031C12148980C5120FC0
:1809B300456006047003020B25120309750CF0E4F51380AF12104C754B
:1809CB00920190178D759200121038E50904801112104C75920190174C
:1809E30095759200121038E5201213BA020B38900140E0B43A5F7C0063
:1809FB00A3120EAE4077CC2CCC6055B4106F78460808E8F9120EAE4053
:180A130064CC2CCCF608120EAE405ACC2CCCF608120EAE4050CC2CCC59
:180A2B00704B7D10120EAE4044CC2CCCF608DDF4120EAE40382C70356F
:180A4300E7FC09B41800502DB41700403DE7B4F10050228035020AFC63
:180A5B00758200758318743014FA7BFE1214DBE493A3687008E4936976
:180A73007003020AE79001C01204BE7592019017777592001210380257
:180A8B000B38E709FD4C701A7418C313FB7430C313C39BFAEBC2AFD2F0
:180AA300FDF5FA04DAFBC2FDD2AFE9F8EC2418FCF583EDF5827A10C209
:180ABB00AFD2FDE709438710F05387EFA3DAF4C2FDD2AFECF583EDF52B
:180AD300827A10E4FBE493F9A3E6086960010BDAF4EB70919001C0122D
:180AEB0004BE759201901773759200121038020B3875920190172E7517
:180B03009200900140120FE57031020C9512104C7420F0A37592019000
:180B1B001774759200121038801312104C7420F0A37592019017787512
:180B33009200121038750C10020E91E4F50C900140AB83AC827AFF0AF7
:180B4B00EAB44003020C95C423F854072430F585E854E0F5848B838CD7
:180B6300827420120FE770DFFC8AC9E0B42006A380F9020BF5B42D0005
:180B7B004010B43A0050F379F078461212DA70027CFFE5C9FB03541EB1
:180B93002426F8EB540304FA740823DAFDFA7E00E6F95A6006EAF45904
:180BAB00F67EFFEC6041EAC449FDE8FCEB2323F8FB75C90079467A04BB
:180BC300EE6022E7FEE26EB40125EE54FE70207A030809E7FEE26E7098
:180BDB0016DAF6EE047010EBF879467A04E7F20809DAFAECF8EDF60203
:180BF3000C95AB83AC827592019017A3759200120FE579017AFF6059E2
:180C0B007592019017AE7592008B838C82120FE579017AFE60437592AF
:180C2300019017B17592008B838C82120FE579007AFE602D7592019021
:180C3B0017A87592008B838C82120FE579007AFF60177592019017C9D8
:180C53007592008B838C82120FE560217C00020B8D7CFF7846E9F608A9
:180C6B00E52030E0027AFEEAF608E4F4F608F6020B8D020EABE5C90328
:180C8300541E2426F808E6540F640F60CF18E644F0F6E5126018B4BEA9
:180C9B000050DFE50CB4200050D8B410004007E512B4A00050CC7E0233
:180CB300E513543FF513FB03541E2426F8EB540304FA740823DAFDFA34
:180CCB00EE146005E6FF5A601AEBC423FC54072430F583CC54E0F58285
:180CE300FDE4936006046003020D95EB04543FB513C4E5127024E51383
:180CFB00DEBC9001C01204BE7592019017257592001210387420F0A3C6
:180D1300742EF0A3020E91020EABE52360F912104C7420F0A375920139
:180D2B00901741759200121038745FF0A3E523541F1213BA745FF0A341
:180D4300E52330E70E7592019017787592001210388011E525B4181666
:180D5B00759201901774759200121038E4F523F524F525020E91745C5C
:180D7300F8F9E524F709E525F709E4F709F779F01213CD75920190177F
:180D8B00B9759200121038020E919001C01204BEEB03541E242604F9C9
:180DA300E730E74E547FF7E52030E0467592019017D8759200121038DF
:180DBB00EB0303540F2401D4FAC4540F4430F0A3EA540F4430F0A374E3
:180DD30020F0A37592019017C9759200E7540F640F6009759201901701
:180DEB00D1759200121038020E91EB04543FF513EA4FF6E50C04600708
:180E0300B420005002F50C8C858D847C20759201E493A3759200600861
:180E1B0004600514F0A3DCED7420F0A3EB03541E242604F8E6540FB41C
:180E33000F13E52020E00E7592019017C9759200121038804975C90092
:180E4B00EB25E025E0F82403F9E3B4FF3419E3B4FF2F19E319B4FE0E05
:180E63007592019017B1E360189017AE80134019E52020E0EB75920183
:180E7B009017A8E360039017A3759200121038800579001213CD740DAE
:180E9300F0A3740AF0A3E4F09001C0E0858215858314F59974C0F5129D
:180EAB00D0C9227A007B02E0C394304019B40A00400954DF9407B41024
:180EC30000500BA3CAC44AFADBE5EAC38002E4D322E0B42003A380F9AC
:180EDB0022A983AA827B00E0B42003A380F9403CC394304037B40A00FF
:180EF3005032F8A3E0B420030B80174027C394304022B40A00501DC82E
:180F0B0075F00AA428F8E5F07012E814B41000500B2323F8A3E0B42094
:180F23000B0B80F889838A82E4F48015C3943040F360F1B4050050ECA3
:180F3B00CB60E9CBA31454034822A983AA82E0B42003A380F9402EC3EB
:180F530094304029B40A005024F8A3E0B421004016C394304017B40AE5
:180F6B00005012A3C875F00AA428F8E5F07006E8B41100400689838A9A
:180F830082E4F422A983AA82E0B42003A380F9404AC394304045B40A5B
:180F9B00005040F8A3E0B421004031C394304033B40A00502EC875F08A
:180FB3000AA428F8E5F07023A3E0B421004015C394304017B40A005057
:180FCB0012C875F00AA428F8E5F07007E8A3B47E00400689838A82E4B6
:180FE300F422E4F4F9759200E0B421004038B480005007B461004002F9
:180FFB00545FF8759201E493759200601D04601A14B480005007B461FE
:18101300004002545F68700AA3759201A3759200D9C3E4F4800E759290
:18102B0001E49375920060030470EFE422759201E493A37592006008D1
:1810430004600514F0A380ED229001C01204BE75920190172E759200ED
:18105B0012103822C0C9E51F451E6003021169E523600914F8E522545A
:181073000F68606F900120E522540FF0A3E522540F232426F8E6540F59
:18108B00F008E6F9540F640F600EE904F6540F640F7014748FF674F098
:1810A300F918E649F9540F600274F04954F0F6A3E50EB50D0AE50BF00E
:1810BB00A3E50AF0A380087401F0A3E50EF0A3E522540FC475C900F87E
:1810D3007910E2F008A3D9FAE4F4F0A3F0A3F0A3F08072900120E52201
:1810EB00540F4480F0A3E522540F232426F808E6F9540F640F7009E549
:18110300234480F523021077E904F6E4F0A3E52454F0F524F584F0AA79
:18111B0082AB83A3E525B418004003021077F0A32418F58579107592EE
:1811330001E493A3759200F0A3D9F38A848B857592017A121214C27514
:18114B009200E8F0A3E9F0A3E4F4F0A3F0751E00751F01758C00758A80
:1811630000D28CD2A9E4D0C922C0C9E51F600904600602121102121350
:18117B00E51E60F6900100E0A320E7F1B4100050E9540FF8FB23242637
:18119300F9E8C475C900F8E0A3FCE0A3FAE0A3B4FF06EA047017801B21
:1811AB00540F6B7016EA601314601004B40500500A650B7000750BFF81
:1811C300750AFF7D017B04E75D600AEC5D700608A3DBFC8015E2FAE059
:1811DB00F26A6005E7C44DC4F708A3DBF0E7F44DF4F7ED23FD54F0604E
:1811F300D4ECC454F0FCE74CF709E754F0C7751E00540FB40F08748046
:18120B00F719E744F0F7804F547FB4100050F7540FF8232426F9E52333
:1812230020E734603214B41000502C687029E0A3701FE0FBA3E0FA7CAB
:18123B0002EB65247003EA65256014E5242410F524E5253400F525DC40
:18125300E8E5234480F52309E754F0F7751E00D0C922C0C9E51F04703D
:18126B006BE51E7067E522540FF522F8E804540FF8232426F9E7540FB6
:181283007048E8B522EEE523600920E70614540FF88037E52104540FDD
:18129B00F803F5835480F582E58354072430F5837904E4936003047023
:1812B30016E5822420F582E5833400F583D9EBE8B521D2E523600DE826
:1812CB00F52188221202B0751F0074FFD0C922C0C989C9E4FB7A7FE032
:1812E300B42003A380F9B42D05EA4480FAA3AF82AE83E0B42E11EA545C
:1812FB007F647F7077EAA2E7EB92E7FAA380EBB430004009B43A005048
:18131300040BA380DD8F828E83EA547FFCEBC39C5001E4B40800504C01
:18132B00C45470CA54804AFAE4FCFDFEFFEB603CE0A3B42E0280F954AB
:181343000FFF1BEB6044EF75F00AA4FFA9F0EE75F00AA429FEE5F0340F
:18135B0000F9ED75F00AA429FDE5F03400F9EC75F00AA429FCE0A3B4FE
:181373002E0680F9E4F4803C540F2FFFEE3400FEED3400FDEC3400FC36
:18138B00DBBCEC54F07025E5C9B4F011EFF608EEF608EDF608EC540F78
:1813A3004AF6E4800FEFF208EEF208EDF208EC540F4AF2E4D0C922F8A5
:1813BB00745CF9C8F709E4F709F709F779F01213CD22C0C9C082C08323
:1813D30089C9E9B4F00FE6F58208E6F58308E6F908E6F8800DE2F5829E
:1813EB0008E2F58308E2F908E2F8540FC8A2E7C4540792E7F5F0E4FBB3
:18140300FCFDFEFF7A20C3E58233F582E58333F583E933F9E833F8EF43
:18141B0035E0D4FFEE35E0D4FEED35E0D4FDEC35E0D4FCEB35E0D4FB89
:18143300DAD4D083D082E5F0540FFA740AC39AC5F030E704742DF0A33D
:18144B00E4F9FAE5F0B5020CE970057430F0A309742EF0A3EA03F8540E
:181463000F2403C8A2E7E64001C4540F4430B4300AEA64096003E96037
:18147B00057430F0A309EA04B40AC7D0C922C0C9C2AFD2FD75C9FC786B
:1814930000E255206520701008E2550E650E700808E255096509600394
:1814AB0075FA227800E520F208E50EF208E509F2C2FDD2AFD0C92278E1
:1814C300FF79FFE0A3C8C9F5F01214FD68F8E5F012160069F9DAEC22D7
:1814DB0078FF79FFE493A3C8C9F5F01214FD68F8E5F012160069F9E5B3
:1814F300836A70E8E5826B70E3226001832221426384A5C6E708294A38
:18150B006B8CADCEEF31107352B594F7D639187B5ABD9CFFDE6243202A
:1815230001E6C7A4856A4B2809EECFAC8D53721130D7F695B45B7A19F3
:18153B0038DFFE9DBCC4E586A740610223CCED8EAF48690A2BF5D4B732
:181553009671503312FDDCBF9E79583B1AA687E4C522036041AE8FECC3
:18156B00CD2A0B684997B6D5F4133251709FBEDDFC1B3A597888A9CA42
:18158300EB0C2D4E6F80A1C2E304254667B998FBDA3D1C7F5EB190F343
:18159B00D235147756EACBA8896E4F2C0DE2C3A08166472405DBFA996A
:1815B300B85F7E1D3CD3F291B0577615344C6D0E2FC8E98AAB4465068B
:1815CB0027C0E182A37D5C3F1EF9D8BB9A75543716F1D0B3922E0F6CFA
:1815E3004DAA8BE8C926076445A283E0C11F3E5D7C9BBAD9F817365523
:1815FB007493B2D1F060018322102030405060708191A1B1C1D1E1F1D0
:1816130012023222524272629383B3A3D3C3F3E3243404146474445437
:18162B00A5B58595E5F5C5D53626160676665646B7A79787F7E7D7C7D7
:181643004858687808182838C9D9E9F98999A9B95A4A7A6A1A0A3A2A77
:18165B00DBCBFBEB9B8BBBAB6C7C4C5C2C3C0C1CEDFDCDDDADBD8D9D17
:181673007E6E5E4E3E2E1E0EFFEFDFCFBFAF9F8F9181B1A1D1C1F1E12F
:18168B0010003020504070608393A3B3C3D3E3F30212223242526272DF
:1816A300B5A59585F5E5D5C53424140474645444A7B78797E7F7C7D76F
:1816BB002636061666764656D9C9F9E99989B9A958487868180838281F
:1816D300CBDBEBFB8B9BABBB4A5A6A7A0A1A2A3AFDEDDDCDBDAD9D8DAF
:1816EB007C6C5C4C3C2C1C0CEFFFCFDFAFBF8F9F6E7E4E5E2E3E0E1E5F
:1817030002200C0224FF022201022303022100023118023D00023C0043
:18171B0002200E006E7266782F006E7266636D64002E006E72667273C6
:181733007000676574006164640064656C006C64667700726663680040
:18174B00616C7266636800726670777200726669640072637072740015
:18176300737476616C0073746861006D717474003A4F6B003A45727277
:18177B006F7200204572726F723A0020524643482000205246505752FD
:1817930020002053544841200020524649442000747275650066616C56
:1817AB007365004F4E004F464600616C6C005F6279746573005F4E6FFB
:1817C3004E616D655F006F66666C696E65006F6E6C696E65007374617E
:1017DB00747573005570646174696E672E2E2E00DC
:0317FB00020000E9
:183F800000000000000000000000000000000000000000000000000029
:183F98000000000000020000C2AF75A300790400D9FDD2FD7418C31302
:183FB000F8E4F5FA04B500FA438710758318758200758500758400E0C7
:163FC800759201F0A3759200A3E583B430F15387EFC2FD020000D7
:103FE00000000000000000000000000000020000CF
:013FFF00FFC2
:00000001FF
